{
  "_format": "hh-sol-artifact-1",
  "contractName": "LazyNFT",
  "sourceName": "contracts/LazyNFT.sol",
  "abi": [
    {
      "inputs": [
        {
          "internalType": "address",
          "name": "_minter",
          "type": "address"
        }
      ],
      "stateMutability": "nonpayable",
      "type": "constructor"
    },
    {
      "anonymous": false,
      "inputs": [
        {
          "indexed": true,
          "internalType": "address",
          "name": "owner",
          "type": "address"
        },
        {
          "indexed": true,
          "internalType": "address",
          "name": "approved",
          "type": "address"
        },
        {
          "indexed": true,
          "internalType": "uint256",
          "name": "tokenId",
          "type": "uint256"
        }
      ],
      "name": "Approval",
      "type": "event"
    },
    {
      "anonymous": false,
      "inputs": [
        {
          "indexed": true,
          "internalType": "address",
          "name": "owner",
          "type": "address"
        },
        {
          "indexed": true,
          "internalType": "address",
          "name": "operator",
          "type": "address"
        },
        {
          "indexed": false,
          "internalType": "bool",
          "name": "approved",
          "type": "bool"
        }
      ],
      "name": "ApprovalForAll",
      "type": "event"
    },
    {
      "anonymous": false,
      "inputs": [
        {
          "indexed": true,
          "internalType": "address",
          "name": "previousOwner",
          "type": "address"
        },
        {
          "indexed": true,
          "internalType": "address",
          "name": "newOwner",
          "type": "address"
        }
      ],
      "name": "OwnershipTransferred",
      "type": "event"
    },
    {
      "anonymous": false,
      "inputs": [
        {
          "indexed": true,
          "internalType": "address",
          "name": "from",
          "type": "address"
        },
        {
          "indexed": true,
          "internalType": "address",
          "name": "to",
          "type": "address"
        },
        {
          "indexed": true,
          "internalType": "uint256",
          "name": "tokenId",
          "type": "uint256"
        }
      ],
      "name": "Transfer",
      "type": "event"
    },
    {
      "inputs": [
        {
          "internalType": "address",
          "name": "to",
          "type": "address"
        },
        {
          "internalType": "uint256",
          "name": "tokenId",
          "type": "uint256"
        }
      ],
      "name": "approve",
      "outputs": [],
      "stateMutability": "nonpayable",
      "type": "function"
    },
    {
      "inputs": [
        {
          "internalType": "address",
          "name": "owner",
          "type": "address"
        }
      ],
      "name": "balanceOf",
      "outputs": [
        {
          "internalType": "uint256",
          "name": "",
          "type": "uint256"
        }
      ],
      "stateMutability": "view",
      "type": "function"
    },
    {
      "inputs": [
        {
          "internalType": "uint256",
          "name": "tokenId",
          "type": "uint256"
        }
      ],
      "name": "getApproved",
      "outputs": [
        {
          "internalType": "address",
          "name": "",
          "type": "address"
        }
      ],
      "stateMutability": "view",
      "type": "function"
    },
    {
      "inputs": [
        {
          "internalType": "address",
          "name": "owner",
          "type": "address"
        },
        {
          "internalType": "address",
          "name": "operator",
          "type": "address"
        }
      ],
      "name": "isApprovedForAll",
      "outputs": [
        {
          "internalType": "bool",
          "name": "",
          "type": "bool"
        }
      ],
      "stateMutability": "view",
      "type": "function"
    },
    {
      "inputs": [],
      "name": "minter",
      "outputs": [
        {
          "internalType": "address",
          "name": "",
          "type": "address"
        }
      ],
      "stateMutability": "view",
      "type": "function"
    },
    {
      "inputs": [],
      "name": "name",
      "outputs": [
        {
          "internalType": "string",
          "name": "",
          "type": "string"
        }
      ],
      "stateMutability": "view",
      "type": "function"
    },
    {
      "inputs": [],
      "name": "owner",
      "outputs": [
        {
          "internalType": "address",
          "name": "",
          "type": "address"
        }
      ],
      "stateMutability": "view",
      "type": "function"
    },
    {
      "inputs": [
        {
          "internalType": "uint256",
          "name": "tokenId",
          "type": "uint256"
        }
      ],
      "name": "ownerOf",
      "outputs": [
        {
          "internalType": "address",
          "name": "",
          "type": "address"
        }
      ],
      "stateMutability": "view",
      "type": "function"
    },
    {
      "inputs": [
        {
          "components": [
            {
              "internalType": "uint256",
              "name": "tokenId",
              "type": "uint256"
            },
            {
              "internalType": "uint256",
              "name": "price",
              "type": "uint256"
            },
            {
              "internalType": "string",
              "name": "uri",
              "type": "string"
            },
            {
              "internalType": "address",
              "name": "buyer",
              "type": "address"
            },
            {
              "internalType": "bytes",
              "name": "signature",
              "type": "bytes"
            }
          ],
          "internalType": "struct LazyNFT.LazyNFTVoucher",
          "name": "voucher",
          "type": "tuple"
        }
      ],
      "name": "recover",
      "outputs": [
        {
          "internalType": "address",
          "name": "",
          "type": "address"
        }
      ],
      "stateMutability": "view",
      "type": "function"
    },
    {
      "inputs": [],
      "name": "renounceOwnership",
      "outputs": [],
      "stateMutability": "nonpayable",
      "type": "function"
    },
    {
      "inputs": [
        {
          "components": [
            {
              "internalType": "uint256",
              "name": "tokenId",
              "type": "uint256"
            },
            {
              "internalType": "uint256",
              "name": "price",
              "type": "uint256"
            },
            {
              "internalType": "string",
              "name": "uri",
              "type": "string"
            },
            {
              "internalType": "address",
              "name": "buyer",
              "type": "address"
            },
            {
              "internalType": "bytes",
              "name": "signature",
              "type": "bytes"
            }
          ],
          "internalType": "struct LazyNFT.LazyNFTVoucher",
          "name": "voucher",
          "type": "tuple"
        }
      ],
      "name": "safeMint",
      "outputs": [],
      "stateMutability": "payable",
      "type": "function"
    },
    {
      "inputs": [
        {
          "internalType": "address",
          "name": "from",
          "type": "address"
        },
        {
          "internalType": "address",
          "name": "to",
          "type": "address"
        },
        {
          "internalType": "uint256",
          "name": "tokenId",
          "type": "uint256"
        }
      ],
      "name": "safeTransferFrom",
      "outputs": [],
      "stateMutability": "nonpayable",
      "type": "function"
    },
    {
      "inputs": [
        {
          "internalType": "address",
          "name": "from",
          "type": "address"
        },
        {
          "internalType": "address",
          "name": "to",
          "type": "address"
        },
        {
          "internalType": "uint256",
          "name": "tokenId",
          "type": "uint256"
        },
        {
          "internalType": "bytes",
          "name": "data",
          "type": "bytes"
        }
      ],
      "name": "safeTransferFrom",
      "outputs": [],
      "stateMutability": "nonpayable",
      "type": "function"
    },
    {
      "inputs": [
        {
          "internalType": "address",
          "name": "operator",
          "type": "address"
        },
        {
          "internalType": "bool",
          "name": "approved",
          "type": "bool"
        }
      ],
      "name": "setApprovalForAll",
      "outputs": [],
      "stateMutability": "nonpayable",
      "type": "function"
    },
    {
      "inputs": [
        {
          "internalType": "bytes4",
          "name": "interfaceId",
          "type": "bytes4"
        }
      ],
      "name": "supportsInterface",
      "outputs": [
        {
          "internalType": "bool",
          "name": "",
          "type": "bool"
        }
      ],
      "stateMutability": "view",
      "type": "function"
    },
    {
      "inputs": [],
      "name": "symbol",
      "outputs": [
        {
          "internalType": "string",
          "name": "",
          "type": "string"
        }
      ],
      "stateMutability": "view",
      "type": "function"
    },
    {
      "inputs": [
        {
          "internalType": "uint256",
          "name": "tokenId",
          "type": "uint256"
        }
      ],
      "name": "tokenURI",
      "outputs": [
        {
          "internalType": "string",
          "name": "",
          "type": "string"
        }
      ],
      "stateMutability": "view",
      "type": "function"
    },
    {
      "inputs": [
        {
          "internalType": "address",
          "name": "from",
          "type": "address"
        },
        {
          "internalType": "address",
          "name": "to",
          "type": "address"
        },
        {
          "internalType": "uint256",
          "name": "tokenId",
          "type": "uint256"
        }
      ],
      "name": "transferFrom",
      "outputs": [],
      "stateMutability": "nonpayable",
      "type": "function"
    },
    {
      "inputs": [
        {
          "internalType": "address",
          "name": "newOwner",
          "type": "address"
        }
      ],
      "name": "transferOwnership",
      "outputs": [],
      "stateMutability": "nonpayable",
      "type": "function"
    }
  ],
  "bytecode": "0x6101406040523480156200001257600080fd5b506040516200229b3803806200229b8339810160408190526200003591620002b6565b6040518060400160405280600e81526020016d2b37bab1b432b916a237b6b0b4b760911b815250604051806040016040528060018152602001603160f81b8152506040518060400160405280600781526020016613185e9e53919560ca1b815250604051806040016040528060048152602001631313919560e21b8152508160009080519060200190620000cb92919062000210565b508051620000e190600190602084019062000210565b505050620000fe620000f8620001ba60201b60201c565b620001be565b815160208084019190912082518383012060e08290526101008190524660a0818152604080517f8b73c3c69bb8fe3d512ecc4cf759cc79239f7b179b0ffacaa9a75d522b39400f81880181905281830187905260608201869052608082019490945230818401528151808203909301835260c00190528051940193909320919290916080523060601b60c052610120525050600880546001600160a01b0319166001600160a01b03949094169390931790925550620003259050565b3390565b600780546001600160a01b038381166001600160a01b0319831681179093556040519116919082907f8be0079c531659141344cd1fd0a4f28419497f9722a3daafe3b4186f6b6457e090600090a35050565b8280546200021e90620002e8565b90600052602060002090601f0160209004810192826200024257600085556200028d565b82601f106200025d57805160ff19168380011785556200028d565b828001600101855582156200028d579182015b828111156200028d57825182559160200191906001019062000270565b506200029b9291506200029f565b5090565b5b808211156200029b5760008155600101620002a0565b600060208284031215620002c957600080fd5b81516001600160a01b0381168114620002e157600080fd5b9392505050565b600181811c90821680620002fd57607f821691505b602082108114156200031f57634e487b7160e01b600052602260045260246000fd5b50919050565b60805160a05160c05160601c60e0516101005161012051611f23620003786000396000611193015260006111e2015260006111bd01526000611116015260006111400152600061116a0152611f236000f3fe6080604052600436106101145760003560e01c806370a08231116100a0578063a22cb46511610064578063a22cb465146102f3578063b88d4fde14610313578063c87b56dd14610333578063e985e9c514610353578063f2fde38b1461039c57600080fd5b806370a082311461025d578063715018a61461028b57806380582374146102a05780638da5cb5b146102c057806395d89b41146102de57600080fd5b8063095ea7b3116100e7578063095ea7b3146101c857806323b872dd146101ea57806342842e0e1461020a578063451f50781461022a5780636352211e1461023d57600080fd5b806301ffc9a71461011957806306fdde031461014e5780630754617214610170578063081812fc146101a8575b600080fd5b34801561012557600080fd5b5061013961013436600461198e565b6103bc565b60405190151581526020015b60405180910390f35b34801561015a57600080fd5b5061016361040e565b6040516101459190611a03565b34801561017c57600080fd5b50600854610190906001600160a01b031681565b6040516001600160a01b039091168152602001610145565b3480156101b457600080fd5b506101906101c3366004611a16565b6104a0565b3480156101d457600080fd5b506101e86101e3366004611a4b565b6104c7565b005b3480156101f657600080fd5b506101e8610205366004611a75565b6105e2565b34801561021657600080fd5b506101e8610225366004611a75565b610613565b6101e8610238366004611ab1565b61062e565b34801561024957600080fd5b50610190610258366004611a16565b61073d565b34801561026957600080fd5b5061027d610278366004611aec565b61079d565b604051908152602001610145565b34801561029757600080fd5b506101e8610823565b3480156102ac57600080fd5b506101906102bb366004611ab1565b610837565b3480156102cc57600080fd5b506007546001600160a01b0316610190565b3480156102ea57600080fd5b5061016361093b565b3480156102ff57600080fd5b506101e861030e366004611b07565b61094a565b34801561031f57600080fd5b506101e861032e366004611b59565b610959565b34801561033f57600080fd5b5061016361034e366004611a16565b610991565b34801561035f57600080fd5b5061013961036e366004611c35565b6001600160a01b03918216600090815260056020908152604080832093909416825291909152205460ff1690565b3480156103a857600080fd5b506101e86103b7366004611aec565b61099c565b60006001600160e01b031982166380ac58cd60e01b14806103ed57506001600160e01b03198216635b5e139f60e01b145b8061040857506301ffc9a760e01b6001600160e01b03198316145b92915050565b60606000805461041d90611c68565b80601f016020809104026020016040519081016040528092919081815260200182805461044990611c68565b80156104965780601f1061046b57610100808354040283529160200191610496565b820191906000526020600020905b81548152906001019060200180831161047957829003601f168201915b5050505050905090565b60006104ab82610a12565b506000908152600460205260409020546001600160a01b031690565b60006104d28261073d565b9050806001600160a01b0316836001600160a01b031614156105455760405162461bcd60e51b815260206004820152602160248201527f4552433732313a20617070726f76616c20746f2063757272656e74206f776e656044820152603960f91b60648201526084015b60405180910390fd5b336001600160a01b03821614806105615750610561813361036e565b6105d35760405162461bcd60e51b815260206004820152603e60248201527f4552433732313a20617070726f76652063616c6c6572206973206e6f7420746f60448201527f6b656e206f776e6572206e6f7220617070726f76656420666f7220616c6c0000606482015260840161053c565b6105dd8383610a71565b505050565b6105ec3382610adf565b6106085760405162461bcd60e51b815260040161053c90611ca3565b6105dd838383610b5d565b6105dd83838360405180602001604052806000815250610959565b61063781610837565b6008546001600160a01b039081169116146106875760405162461bcd60e51b815260206004820152601060248201526f2bb937b7339039b4b3b730ba3ab9329760811b604482015260640161053c565b80602001353410156106d45760405162461bcd60e51b81526020600482015260166024820152752737ba1032b737bab3b41032ba3432b91039b2b73a1760511b604482015260640161053c565b6106ee6106e76080830160608401611aec565b8235610cf9565b61073a81356107006040840184611cf1565b8080601f016020809104026020016040519081016040528093929190818152602001838380828437600092019190915250610d1392505050565b50565b6000818152600260205260408120546001600160a01b0316806104085760405162461bcd60e51b8152602060048201526018602482015277115490cdcc8c4e881a5b9d985b1a59081d1bdad95b88125160421b604482015260640161053c565b60006001600160a01b0382166108075760405162461bcd60e51b815260206004820152602960248201527f4552433732313a2061646472657373207a65726f206973206e6f7420612076616044820152683634b21037bbb732b960b91b606482015260840161053c565b506001600160a01b031660009081526003602052604090205490565b61082b610dad565b6108356000610e07565b565b6000806108e47f9dc3068ebab8259df0963c01eb13024f5fd61127faccd50cf6f6173048c552fa843560208601356108726040880188611cf1565b604051610880929190611d38565b6040519081900390206108996080890160608a01611aec565b604080516020810196909652850193909352606084019190915260808301526001600160a01b031660a082015260c00160405160208183030381529060405280519060200120610e59565b90506000610933826108f96080870187611cf1565b8080601f016020809104026020016040519081016040528093929190818152602001838380828437600092019190915250610ea792505050565b949350505050565b60606001805461041d90611c68565b610955338383610ecb565b5050565b6109633383610adf565b61097f5760405162461bcd60e51b815260040161053c90611ca3565b61098b84848484610f9a565b50505050565b606061040882610fcd565b6109a4610dad565b6001600160a01b038116610a095760405162461bcd60e51b815260206004820152602660248201527f4f776e61626c653a206e6577206f776e657220697320746865207a65726f206160448201526564647265737360d01b606482015260840161053c565b61073a81610e07565b6000818152600260205260409020546001600160a01b031661073a5760405162461bcd60e51b8152602060048201526018602482015277115490cdcc8c4e881a5b9d985b1a59081d1bdad95b88125160421b604482015260640161053c565b600081815260046020526040902080546001600160a01b0319166001600160a01b0384169081179091558190610aa68261073d565b6001600160a01b03167f8c5be1e5ebec7d5bd14f71427d1e84f3dd0314c0f7b2291e5b200ac8c7c3b92560405160405180910390a45050565b600080610aeb8361073d565b9050806001600160a01b0316846001600160a01b03161480610b3257506001600160a01b0380821660009081526005602090815260408083209388168352929052205460ff165b806109335750836001600160a01b0316610b4b846104a0565b6001600160a01b031614949350505050565b826001600160a01b0316610b708261073d565b6001600160a01b031614610bd45760405162461bcd60e51b815260206004820152602560248201527f4552433732313a207472616e736665722066726f6d20696e636f72726563742060448201526437bbb732b960d91b606482015260840161053c565b6001600160a01b038216610c365760405162461bcd60e51b8152602060048201526024808201527f4552433732313a207472616e7366657220746f20746865207a65726f206164646044820152637265737360e01b606482015260840161053c565b610c41600082610a71565b6001600160a01b0383166000908152600360205260408120805460019290610c6a908490611d5e565b90915550506001600160a01b0382166000908152600360205260408120805460019290610c98908490611d75565b909155505060008181526002602052604080822080546001600160a01b0319166001600160a01b0386811691821790925591518493918716917fddf252ad1be2c89b69c2b068fc378daa952ba7f163c4a11628f55a4df523b3ef91a4505050565b6109558282604051806020016040528060008152506110d6565b6000828152600260205260409020546001600160a01b0316610d8e5760405162461bcd60e51b815260206004820152602e60248201527f45524337323155524953746f726167653a2055524920736574206f66206e6f6e60448201526d32bc34b9ba32b73a103a37b5b2b760911b606482015260840161053c565b600082815260066020908152604090912082516105dd928401906118df565b6007546001600160a01b031633146108355760405162461bcd60e51b815260206004820181905260248201527f4f776e61626c653a2063616c6c6572206973206e6f7420746865206f776e6572604482015260640161053c565b600780546001600160a01b038381166001600160a01b0319831681179093556040519116919082907f8be0079c531659141344cd1fd0a4f28419497f9722a3daafe3b4186f6b6457e090600090a35050565b6000610408610e66611109565b8360405161190160f01b6020820152602281018390526042810182905260009060620160405160208183030381529060405280519060200120905092915050565b6000806000610eb68585611230565b91509150610ec381611276565b509392505050565b816001600160a01b0316836001600160a01b03161415610f2d5760405162461bcd60e51b815260206004820152601960248201527f4552433732313a20617070726f766520746f2063616c6c657200000000000000604482015260640161053c565b6001600160a01b03838116600081815260056020908152604080832094871680845294825291829020805460ff191686151590811790915591519182527f17307eab39ab6107e8899845ad3d59bd9653f200f220920489ca2b5937696c31910160405180910390a3505050565b610fa5848484610b5d565b610fb184848484611431565b61098b5760405162461bcd60e51b815260040161053c90611d8d565b6060610fd882610a12565b60008281526006602052604081208054610ff190611c68565b80601f016020809104026020016040519081016040528092919081815260200182805461101d90611c68565b801561106a5780601f1061103f5761010080835404028352916020019161106a565b820191906000526020600020905b81548152906001019060200180831161104d57829003601f168201915b50505050509050600061108860408051602081019091526000815290565b905080516000141561109b575092915050565b8151156110cd5780826040516020016110b5929190611ddf565b60405160208183030381529060405292505050919050565b6109338461153e565b6110e083836115b2565b6110ed6000848484611431565b6105dd5760405162461bcd60e51b815260040161053c90611d8d565b6000306001600160a01b037f00000000000000000000000000000000000000000000000000000000000000001614801561116257507f000000000000000000000000000000000000000000000000000000000000000046145b1561118c57507f000000000000000000000000000000000000000000000000000000000000000090565b50604080517f00000000000000000000000000000000000000000000000000000000000000006020808301919091527f0000000000000000000000000000000000000000000000000000000000000000828401527f000000000000000000000000000000000000000000000000000000000000000060608301524660808301523060a0808401919091528351808403909101815260c0909201909252805191012090565b6000808251604114156112675760208301516040840151606085015160001a61125b878285856116f4565b9450945050505061126f565b506000905060025b9250929050565b600081600481111561128a5761128a611e0e565b14156112935750565b60018160048111156112a7576112a7611e0e565b14156112f55760405162461bcd60e51b815260206004820152601860248201527f45434453413a20696e76616c6964207369676e61747572650000000000000000604482015260640161053c565b600281600481111561130957611309611e0e565b14156113575760405162461bcd60e51b815260206004820152601f60248201527f45434453413a20696e76616c6964207369676e6174757265206c656e67746800604482015260640161053c565b600381600481111561136b5761136b611e0e565b14156113c45760405162461bcd60e51b815260206004820152602260248201527f45434453413a20696e76616c6964207369676e6174757265202773272076616c604482015261756560f01b606482015260840161053c565b60048160048111156113d8576113d8611e0e565b141561073a5760405162461bcd60e51b815260206004820152602260248201527f45434453413a20696e76616c6964207369676e6174757265202776272076616c604482015261756560f01b606482015260840161053c565b60006001600160a01b0384163b1561153357604051630a85bd0160e11b81526001600160a01b0385169063150b7a0290611475903390899088908890600401611e24565b602060405180830381600087803b15801561148f57600080fd5b505af19250505080156114bf575060408051601f3d908101601f191682019092526114bc91810190611e61565b60015b611519573d8080156114ed576040519150601f19603f3d011682016040523d82523d6000602084013e6114f2565b606091505b5080516115115760405162461bcd60e51b815260040161053c90611d8d565b805181602001fd5b6001600160e01b031916630a85bd0160e11b149050610933565b506001949350505050565b606061154982610a12565b600061156060408051602081019091526000815290565b9050600081511161158057604051806020016040528060008152506115ab565b8061158a846117e1565b60405160200161159b929190611ddf565b6040516020818303038152906040525b9392505050565b6001600160a01b0382166116085760405162461bcd60e51b815260206004820181905260248201527f4552433732313a206d696e7420746f20746865207a65726f2061646472657373604482015260640161053c565b6000818152600260205260409020546001600160a01b03161561166d5760405162461bcd60e51b815260206004820152601c60248201527f4552433732313a20746f6b656e20616c7265616479206d696e74656400000000604482015260640161053c565b6001600160a01b0382166000908152600360205260408120805460019290611696908490611d75565b909155505060008181526002602052604080822080546001600160a01b0319166001600160a01b03861690811790915590518392907fddf252ad1be2c89b69c2b068fc378daa952ba7f163c4a11628f55a4df523b3ef908290a45050565b6000807f7fffffffffffffffffffffffffffffff5d576e7357a4501ddfe92f46681b20a083111561172b57506000905060036117d8565b8460ff16601b1415801561174357508460ff16601c14155b1561175457506000905060046117d8565b6040805160008082526020820180845289905260ff881692820192909252606081018690526080810185905260019060a0016020604051602081039080840390855afa1580156117a8573d6000803e3d6000fd5b5050604051601f1901519150506001600160a01b0381166117d1576000600192509250506117d8565b9150600090505b94509492505050565b6060816118055750506040805180820190915260018152600360fc1b602082015290565b8160005b811561182f578061181981611e7e565b91506118289050600a83611eaf565b9150611809565b60008167ffffffffffffffff81111561184a5761184a611b43565b6040519080825280601f01601f191660200182016040528015611874576020820181803683370190505b5090505b841561093357611889600183611d5e565b9150611896600a86611ec3565b6118a1906030611d75565b60f81b8183815181106118b6576118b6611ed7565b60200101906001600160f81b031916908160001a9053506118d8600a86611eaf565b9450611878565b8280546118eb90611c68565b90600052602060002090601f01602090048101928261190d5760008555611953565b82601f1061192657805160ff1916838001178555611953565b82800160010185558215611953579182015b82811115611953578251825591602001919060010190611938565b5061195f929150611963565b5090565b5b8082111561195f5760008155600101611964565b6001600160e01b03198116811461073a57600080fd5b6000602082840312156119a057600080fd5b81356115ab81611978565b60005b838110156119c65781810151838201526020016119ae565b8381111561098b5750506000910152565b600081518084526119ef8160208601602086016119ab565b601f01601f19169290920160200192915050565b6020815260006115ab60208301846119d7565b600060208284031215611a2857600080fd5b5035919050565b80356001600160a01b0381168114611a4657600080fd5b919050565b60008060408385031215611a5e57600080fd5b611a6783611a2f565b946020939093013593505050565b600080600060608486031215611a8a57600080fd5b611a9384611a2f565b9250611aa160208501611a2f565b9150604084013590509250925092565b600060208284031215611ac357600080fd5b813567ffffffffffffffff811115611ada57600080fd5b820160a081850312156115ab57600080fd5b600060208284031215611afe57600080fd5b6115ab82611a2f565b60008060408385031215611b1a57600080fd5b611b2383611a2f565b915060208301358015158114611b3857600080fd5b809150509250929050565b634e487b7160e01b600052604160045260246000fd5b60008060008060808587031215611b6f57600080fd5b611b7885611a2f565b9350611b8660208601611a2f565b925060408501359150606085013567ffffffffffffffff80821115611baa57600080fd5b818701915087601f830112611bbe57600080fd5b813581811115611bd057611bd0611b43565b604051601f8201601f19908116603f01168101908382118183101715611bf857611bf8611b43565b816040528281528a6020848701011115611c1157600080fd5b82602086016020830137600060208483010152809550505050505092959194509250565b60008060408385031215611c4857600080fd5b611c5183611a2f565b9150611c5f60208401611a2f565b90509250929050565b600181811c90821680611c7c57607f821691505b60208210811415611c9d57634e487b7160e01b600052602260045260246000fd5b50919050565b6020808252602e908201527f4552433732313a2063616c6c6572206973206e6f7420746f6b656e206f776e6560408201526d1c881b9bdc88185c1c1c9bdd995960921b606082015260800190565b6000808335601e19843603018112611d0857600080fd5b83018035915067ffffffffffffffff821115611d2357600080fd5b60200191503681900382131561126f57600080fd5b8183823760009101908152919050565b634e487b7160e01b600052601160045260246000fd5b600082821015611d7057611d70611d48565b500390565b60008219821115611d8857611d88611d48565b500190565b60208082526032908201527f4552433732313a207472616e7366657220746f206e6f6e20455243373231526560408201527131b2b4bb32b91034b6b83632b6b2b73a32b960711b606082015260800190565b60008351611df18184602088016119ab565b835190830190611e058183602088016119ab565b01949350505050565b634e487b7160e01b600052602160045260246000fd5b6001600160a01b0385811682528416602082015260408101839052608060608201819052600090611e57908301846119d7565b9695505050505050565b600060208284031215611e7357600080fd5b81516115ab81611978565b6000600019821415611e9257611e92611d48565b5060010190565b634e487b7160e01b600052601260045260246000fd5b600082611ebe57611ebe611e99565b500490565b600082611ed257611ed2611e99565b500690565b634e487b7160e01b600052603260045260246000fdfea2646970667358221220d0412ac3908c02dd878181ef5f1a3e20b31026be6524fda453b5a5d3bbe3280064736f6c63430008080033",
  "linkReferences": {},
  "deployedLinkReferences": {}
}