{
  "_format": "hh-sol-artifact-1",
  "contractName": "LazyNFT",
  "sourceName": "contracts/LazyNFT.sol",
  "abi": [
    {
      "inputs": [
        {
          "internalType": "address",
          "name": "_minter",
          "type": "address"
        }
      ],
      "stateMutability": "nonpayable",
      "type": "constructor"
    },
    {
      "anonymous": false,
      "inputs": [
        {
          "indexed": true,
          "internalType": "address",
          "name": "owner",
          "type": "address"
        },
        {
          "indexed": true,
          "internalType": "address",
          "name": "approved",
          "type": "address"
        },
        {
          "indexed": true,
          "internalType": "uint256",
          "name": "tokenId",
          "type": "uint256"
        }
      ],
      "name": "Approval",
      "type": "event"
    },
    {
      "anonymous": false,
      "inputs": [
        {
          "indexed": true,
          "internalType": "address",
          "name": "owner",
          "type": "address"
        },
        {
          "indexed": true,
          "internalType": "address",
          "name": "operator",
          "type": "address"
        },
        {
          "indexed": false,
          "internalType": "bool",
          "name": "approved",
          "type": "bool"
        }
      ],
      "name": "ApprovalForAll",
      "type": "event"
    },
    {
      "anonymous": false,
      "inputs": [
        {
          "indexed": true,
          "internalType": "address",
          "name": "from",
          "type": "address"
        },
        {
          "indexed": true,
          "internalType": "address",
          "name": "to",
          "type": "address"
        },
        {
          "indexed": true,
          "internalType": "uint256",
          "name": "tokenId",
          "type": "uint256"
        }
      ],
      "name": "Transfer",
      "type": "event"
    },
    {
      "inputs": [
        {
          "internalType": "address",
          "name": "to",
          "type": "address"
        },
        {
          "internalType": "uint256",
          "name": "tokenId",
          "type": "uint256"
        }
      ],
      "name": "approve",
      "outputs": [],
      "stateMutability": "nonpayable",
      "type": "function"
    },
    {
      "inputs": [
        {
          "internalType": "address",
          "name": "owner",
          "type": "address"
        }
      ],
      "name": "balanceOf",
      "outputs": [
        {
          "internalType": "uint256",
          "name": "",
          "type": "uint256"
        }
      ],
      "stateMutability": "view",
      "type": "function"
    },
    {
      "inputs": [
        {
          "internalType": "uint256",
          "name": "tokenId",
          "type": "uint256"
        }
      ],
      "name": "getApproved",
      "outputs": [
        {
          "internalType": "address",
          "name": "",
          "type": "address"
        }
      ],
      "stateMutability": "view",
      "type": "function"
    },
    {
      "inputs": [
        {
          "internalType": "address",
          "name": "owner",
          "type": "address"
        },
        {
          "internalType": "address",
          "name": "operator",
          "type": "address"
        }
      ],
      "name": "isApprovedForAll",
      "outputs": [
        {
          "internalType": "bool",
          "name": "",
          "type": "bool"
        }
      ],
      "stateMutability": "view",
      "type": "function"
    },
    {
      "inputs": [],
      "name": "minter",
      "outputs": [
        {
          "internalType": "address",
          "name": "",
          "type": "address"
        }
      ],
      "stateMutability": "view",
      "type": "function"
    },
    {
      "inputs": [],
      "name": "name",
      "outputs": [
        {
          "internalType": "string",
          "name": "",
          "type": "string"
        }
      ],
      "stateMutability": "view",
      "type": "function"
    },
    {
      "inputs": [
        {
          "internalType": "uint256",
          "name": "tokenId",
          "type": "uint256"
        }
      ],
      "name": "ownerOf",
      "outputs": [
        {
          "internalType": "address",
          "name": "",
          "type": "address"
        }
      ],
      "stateMutability": "view",
      "type": "function"
    },
    {
      "inputs": [
        {
          "components": [
            {
              "internalType": "uint256",
              "name": "tokenId",
              "type": "uint256"
            },
            {
              "internalType": "uint256",
              "name": "price",
              "type": "uint256"
            },
            {
              "internalType": "string",
              "name": "uri",
              "type": "string"
            },
            {
              "internalType": "address",
              "name": "buyer",
              "type": "address"
            },
            {
              "internalType": "bytes",
              "name": "signature",
              "type": "bytes"
            }
          ],
          "internalType": "struct LazyNFT.LazyNFTVoucher",
          "name": "voucher",
          "type": "tuple"
        }
      ],
      "name": "recover",
      "outputs": [
        {
          "internalType": "address",
          "name": "",
          "type": "address"
        }
      ],
      "stateMutability": "view",
      "type": "function"
    },
    {
      "inputs": [
        {
          "components": [
            {
              "internalType": "uint256",
              "name": "tokenId",
              "type": "uint256"
            },
            {
              "internalType": "uint256",
              "name": "price",
              "type": "uint256"
            },
            {
              "internalType": "string",
              "name": "uri",
              "type": "string"
            },
            {
              "internalType": "address",
              "name": "buyer",
              "type": "address"
            },
            {
              "internalType": "bytes",
              "name": "signature",
              "type": "bytes"
            }
          ],
          "internalType": "struct LazyNFT.LazyNFTVoucher",
          "name": "voucher",
          "type": "tuple"
        }
      ],
      "name": "safeMint",
      "outputs": [],
      "stateMutability": "payable",
      "type": "function"
    },
    {
      "inputs": [
        {
          "internalType": "address",
          "name": "from",
          "type": "address"
        },
        {
          "internalType": "address",
          "name": "to",
          "type": "address"
        },
        {
          "internalType": "uint256",
          "name": "tokenId",
          "type": "uint256"
        }
      ],
      "name": "safeTransferFrom",
      "outputs": [],
      "stateMutability": "nonpayable",
      "type": "function"
    },
    {
      "inputs": [
        {
          "internalType": "address",
          "name": "from",
          "type": "address"
        },
        {
          "internalType": "address",
          "name": "to",
          "type": "address"
        },
        {
          "internalType": "uint256",
          "name": "tokenId",
          "type": "uint256"
        },
        {
          "internalType": "bytes",
          "name": "data",
          "type": "bytes"
        }
      ],
      "name": "safeTransferFrom",
      "outputs": [],
      "stateMutability": "nonpayable",
      "type": "function"
    },
    {
      "inputs": [
        {
          "internalType": "address",
          "name": "operator",
          "type": "address"
        },
        {
          "internalType": "bool",
          "name": "approved",
          "type": "bool"
        }
      ],
      "name": "setApprovalForAll",
      "outputs": [],
      "stateMutability": "nonpayable",
      "type": "function"
    },
    {
      "inputs": [
        {
          "internalType": "bytes4",
          "name": "interfaceId",
          "type": "bytes4"
        }
      ],
      "name": "supportsInterface",
      "outputs": [
        {
          "internalType": "bool",
          "name": "",
          "type": "bool"
        }
      ],
      "stateMutability": "view",
      "type": "function"
    },
    {
      "inputs": [],
      "name": "symbol",
      "outputs": [
        {
          "internalType": "string",
          "name": "",
          "type": "string"
        }
      ],
      "stateMutability": "view",
      "type": "function"
    },
    {
      "inputs": [
        {
          "internalType": "uint256",
          "name": "tokenId",
          "type": "uint256"
        }
      ],
      "name": "tokenURI",
      "outputs": [
        {
          "internalType": "string",
          "name": "",
          "type": "string"
        }
      ],
      "stateMutability": "view",
      "type": "function"
    },
    {
      "inputs": [
        {
          "internalType": "address",
          "name": "from",
          "type": "address"
        },
        {
          "internalType": "address",
          "name": "to",
          "type": "address"
        },
        {
          "internalType": "uint256",
          "name": "tokenId",
          "type": "uint256"
        }
      ],
      "name": "transferFrom",
      "outputs": [],
      "stateMutability": "nonpayable",
      "type": "function"
    }
  ],
  "bytecode": "0x6101406040523480156200001257600080fd5b506040516200208138038062002081833981016040819052620000359162000246565b6040518060400160405280600e81526020016d2b37bab1b432b916a237b6b0b4b760911b815250604051806040016040528060018152602001603160f81b8152506040518060400160405280600781526020016613185e9e53919560ca1b815250604051806040016040528060048152602001631313919560e21b8152508160009080519060200190620000cb929190620001a0565b508051620000e1906001906020840190620001a0565b5050825160208085019190912083518483012060e08290526101008190524660a0818152604080517f8b73c3c69bb8fe3d512ecc4cf759cc79239f7b179b0ffacaa9a75d522b39400f81880181905281830187905260608201869052608082019490945230818401528151808203909301835260c0019052805194019390932091935091906080523060601b60c052610120525050600780546001600160a01b0319166001600160a01b03949094169390931790925550620002b59050565b828054620001ae9062000278565b90600052602060002090601f016020900481019282620001d257600085556200021d565b82601f10620001ed57805160ff19168380011785556200021d565b828001600101855582156200021d579182015b828111156200021d57825182559160200191906001019062000200565b506200022b9291506200022f565b5090565b5b808211156200022b576000815560010162000230565b6000602082840312156200025957600080fd5b81516001600160a01b03811681146200027157600080fd5b9392505050565b600181811c908216806200028d57607f821691505b60208210811415620002af57634e487b7160e01b600052602260045260246000fd5b50919050565b60805160a05160c05160601c60e0516101005161012051611d79620003086000396000610fe9015260006110380152600061101301526000610f6c01526000610f9601526000610fc00152611d796000f3fe6080604052600436106100f35760003560e01c80636352211e1161008a578063a22cb46511610059578063a22cb4651461029f578063b88d4fde146102bf578063c87b56dd146102df578063e985e9c5146102ff57600080fd5b80636352211e1461021c57806370a082311461023c578063805823741461026a57806395d89b411461028a57600080fd5b8063095ea7b3116100c6578063095ea7b3146101a757806323b872dd146101c957806342842e0e146101e9578063451f50781461020957600080fd5b806301ffc9a7146100f857806306fdde031461012d578063075461721461014f578063081812fc14610187575b600080fd5b34801561010457600080fd5b506101186101133660046117e4565b610348565b60405190151581526020015b60405180910390f35b34801561013957600080fd5b5061014261039a565b6040516101249190611859565b34801561015b57600080fd5b5060075461016f906001600160a01b031681565b6040516001600160a01b039091168152602001610124565b34801561019357600080fd5b5061016f6101a236600461186c565b61042c565b3480156101b357600080fd5b506101c76101c23660046118a1565b610453565b005b3480156101d557600080fd5b506101c76101e43660046118cb565b61056e565b3480156101f557600080fd5b506101c76102043660046118cb565b61059f565b6101c7610217366004611907565b6105ba565b34801561022857600080fd5b5061016f61023736600461186c565b6106c9565b34801561024857600080fd5b5061025c610257366004611942565b610729565b604051908152602001610124565b34801561027657600080fd5b5061016f610285366004611907565b6107af565b34801561029657600080fd5b506101426108b3565b3480156102ab57600080fd5b506101c76102ba36600461195d565b6108c2565b3480156102cb57600080fd5b506101c76102da3660046119af565b6108d1565b3480156102eb57600080fd5b506101426102fa36600461186c565b610909565b34801561030b57600080fd5b5061011861031a366004611a8b565b6001600160a01b03918216600090815260056020908152604080832093909416825291909152205460ff1690565b60006001600160e01b031982166380ac58cd60e01b148061037957506001600160e01b03198216635b5e139f60e01b145b8061039457506301ffc9a760e01b6001600160e01b03198316145b92915050565b6060600080546103a990611abe565b80601f01602080910402602001604051908101604052809291908181526020018280546103d590611abe565b80156104225780601f106103f757610100808354040283529160200191610422565b820191906000526020600020905b81548152906001019060200180831161040557829003601f168201915b5050505050905090565b600061043782610914565b506000908152600460205260409020546001600160a01b031690565b600061045e826106c9565b9050806001600160a01b0316836001600160a01b031614156104d15760405162461bcd60e51b815260206004820152602160248201527f4552433732313a20617070726f76616c20746f2063757272656e74206f776e656044820152603960f91b60648201526084015b60405180910390fd5b336001600160a01b03821614806104ed57506104ed813361031a565b61055f5760405162461bcd60e51b815260206004820152603e60248201527f4552433732313a20617070726f76652063616c6c6572206973206e6f7420746f60448201527f6b656e206f776e6572206e6f7220617070726f76656420666f7220616c6c000060648201526084016104c8565b6105698383610973565b505050565b61057833826109e1565b6105945760405162461bcd60e51b81526004016104c890611af9565b610569838383610a5f565b610569838383604051806020016040528060008152506108d1565b6105c3816107af565b6007546001600160a01b039081169116146106135760405162461bcd60e51b815260206004820152601060248201526f2bb937b7339039b4b3b730ba3ab9329760811b60448201526064016104c8565b80602001353410156106605760405162461bcd60e51b81526020600482015260166024820152752737ba1032b737bab3b41032ba3432b91039b2b73a1760511b60448201526064016104c8565b61067a6106736080830160608401611942565b8235610bfb565b6106c6813561068c6040840184611b47565b8080601f016020809104026020016040519081016040528093929190818152602001838380828437600092019190915250610c1592505050565b50565b6000818152600260205260408120546001600160a01b0316806103945760405162461bcd60e51b8152602060048201526018602482015277115490cdcc8c4e881a5b9d985b1a59081d1bdad95b88125160421b60448201526064016104c8565b60006001600160a01b0382166107935760405162461bcd60e51b815260206004820152602960248201527f4552433732313a2061646472657373207a65726f206973206e6f7420612076616044820152683634b21037bbb732b960b91b60648201526084016104c8565b506001600160a01b031660009081526003602052604090205490565b60008061085c7f9dc3068ebab8259df0963c01eb13024f5fd61127faccd50cf6f6173048c552fa843560208601356107ea6040880188611b47565b6040516107f8929190611b8e565b6040519081900390206108116080890160608a01611942565b604080516020810196909652850193909352606084019190915260808301526001600160a01b031660a082015260c00160405160208183030381529060405280519060200120610caf565b905060006108ab826108716080870187611b47565b8080601f016020809104026020016040519081016040528093929190818152602001838380828437600092019190915250610cfd92505050565b949350505050565b6060600180546103a990611abe565b6108cd338383610d21565b5050565b6108db33836109e1565b6108f75760405162461bcd60e51b81526004016104c890611af9565b61090384848484610df0565b50505050565b606061039482610e23565b6000818152600260205260409020546001600160a01b03166106c65760405162461bcd60e51b8152602060048201526018602482015277115490cdcc8c4e881a5b9d985b1a59081d1bdad95b88125160421b60448201526064016104c8565b600081815260046020526040902080546001600160a01b0319166001600160a01b03841690811790915581906109a8826106c9565b6001600160a01b03167f8c5be1e5ebec7d5bd14f71427d1e84f3dd0314c0f7b2291e5b200ac8c7c3b92560405160405180910390a45050565b6000806109ed836106c9565b9050806001600160a01b0316846001600160a01b03161480610a3457506001600160a01b0380821660009081526005602090815260408083209388168352929052205460ff165b806108ab5750836001600160a01b0316610a4d8461042c565b6001600160a01b031614949350505050565b826001600160a01b0316610a72826106c9565b6001600160a01b031614610ad65760405162461bcd60e51b815260206004820152602560248201527f4552433732313a207472616e736665722066726f6d20696e636f72726563742060448201526437bbb732b960d91b60648201526084016104c8565b6001600160a01b038216610b385760405162461bcd60e51b8152602060048201526024808201527f4552433732313a207472616e7366657220746f20746865207a65726f206164646044820152637265737360e01b60648201526084016104c8565b610b43600082610973565b6001600160a01b0383166000908152600360205260408120805460019290610b6c908490611bb4565b90915550506001600160a01b0382166000908152600360205260408120805460019290610b9a908490611bcb565b909155505060008181526002602052604080822080546001600160a01b0319166001600160a01b0386811691821790925591518493918716917fddf252ad1be2c89b69c2b068fc378daa952ba7f163c4a11628f55a4df523b3ef91a4505050565b6108cd828260405180602001604052806000815250610f2c565b6000828152600260205260409020546001600160a01b0316610c905760405162461bcd60e51b815260206004820152602e60248201527f45524337323155524953746f726167653a2055524920736574206f66206e6f6e60448201526d32bc34b9ba32b73a103a37b5b2b760911b60648201526084016104c8565b6000828152600660209081526040909120825161056992840190611735565b6000610394610cbc610f5f565b8360405161190160f01b6020820152602281018390526042810182905260009060620160405160208183030381529060405280519060200120905092915050565b6000806000610d0c8585611086565b91509150610d19816110cc565b509392505050565b816001600160a01b0316836001600160a01b03161415610d835760405162461bcd60e51b815260206004820152601960248201527f4552433732313a20617070726f766520746f2063616c6c65720000000000000060448201526064016104c8565b6001600160a01b03838116600081815260056020908152604080832094871680845294825291829020805460ff191686151590811790915591519182527f17307eab39ab6107e8899845ad3d59bd9653f200f220920489ca2b5937696c31910160405180910390a3505050565b610dfb848484610a5f565b610e0784848484611287565b6109035760405162461bcd60e51b81526004016104c890611be3565b6060610e2e82610914565b60008281526006602052604081208054610e4790611abe565b80601f0160208091040260200160405190810160405280929190818152602001828054610e7390611abe565b8015610ec05780601f10610e9557610100808354040283529160200191610ec0565b820191906000526020600020905b815481529060010190602001808311610ea357829003601f168201915b505050505090506000610ede60408051602081019091526000815290565b9050805160001415610ef1575092915050565b815115610f23578082604051602001610f0b929190611c35565b60405160208183030381529060405292505050919050565b6108ab84611394565b610f368383611408565b610f436000848484611287565b6105695760405162461bcd60e51b81526004016104c890611be3565b6000306001600160a01b037f000000000000000000000000000000000000000000000000000000000000000016148015610fb857507f000000000000000000000000000000000000000000000000000000000000000046145b15610fe257507f000000000000000000000000000000000000000000000000000000000000000090565b50604080517f00000000000000000000000000000000000000000000000000000000000000006020808301919091527f0000000000000000000000000000000000000000000000000000000000000000828401527f000000000000000000000000000000000000000000000000000000000000000060608301524660808301523060a0808401919091528351808403909101815260c0909201909252805191012090565b6000808251604114156110bd5760208301516040840151606085015160001a6110b18782858561154a565b945094505050506110c5565b506000905060025b9250929050565b60008160048111156110e0576110e0611c64565b14156110e95750565b60018160048111156110fd576110fd611c64565b141561114b5760405162461bcd60e51b815260206004820152601860248201527f45434453413a20696e76616c6964207369676e6174757265000000000000000060448201526064016104c8565b600281600481111561115f5761115f611c64565b14156111ad5760405162461bcd60e51b815260206004820152601f60248201527f45434453413a20696e76616c6964207369676e6174757265206c656e6774680060448201526064016104c8565b60038160048111156111c1576111c1611c64565b141561121a5760405162461bcd60e51b815260206004820152602260248201527f45434453413a20696e76616c6964207369676e6174757265202773272076616c604482015261756560f01b60648201526084016104c8565b600481600481111561122e5761122e611c64565b14156106c65760405162461bcd60e51b815260206004820152602260248201527f45434453413a20696e76616c6964207369676e6174757265202776272076616c604482015261756560f01b60648201526084016104c8565b60006001600160a01b0384163b1561138957604051630a85bd0160e11b81526001600160a01b0385169063150b7a02906112cb903390899088908890600401611c7a565b602060405180830381600087803b1580156112e557600080fd5b505af1925050508015611315575060408051601f3d908101601f1916820190925261131291810190611cb7565b60015b61136f573d808015611343576040519150601f19603f3d011682016040523d82523d6000602084013e611348565b606091505b5080516113675760405162461bcd60e51b81526004016104c890611be3565b805181602001fd5b6001600160e01b031916630a85bd0160e11b1490506108ab565b506001949350505050565b606061139f82610914565b60006113b660408051602081019091526000815290565b905060008151116113d65760405180602001604052806000815250611401565b806113e084611637565b6040516020016113f1929190611c35565b6040516020818303038152906040525b9392505050565b6001600160a01b03821661145e5760405162461bcd60e51b815260206004820181905260248201527f4552433732313a206d696e7420746f20746865207a65726f206164647265737360448201526064016104c8565b6000818152600260205260409020546001600160a01b0316156114c35760405162461bcd60e51b815260206004820152601c60248201527f4552433732313a20746f6b656e20616c7265616479206d696e7465640000000060448201526064016104c8565b6001600160a01b03821660009081526003602052604081208054600192906114ec908490611bcb565b909155505060008181526002602052604080822080546001600160a01b0319166001600160a01b03861690811790915590518392907fddf252ad1be2c89b69c2b068fc378daa952ba7f163c4a11628f55a4df523b3ef908290a45050565b6000807f7fffffffffffffffffffffffffffffff5d576e7357a4501ddfe92f46681b20a0831115611581575060009050600361162e565b8460ff16601b1415801561159957508460ff16601c14155b156115aa575060009050600461162e565b6040805160008082526020820180845289905260ff881692820192909252606081018690526080810185905260019060a0016020604051602081039080840390855afa1580156115fe573d6000803e3d6000fd5b5050604051601f1901519150506001600160a01b0381166116275760006001925092505061162e565b9150600090505b94509492505050565b60608161165b5750506040805180820190915260018152600360fc1b602082015290565b8160005b8115611685578061166f81611cd4565b915061167e9050600a83611d05565b915061165f565b60008167ffffffffffffffff8111156116a0576116a0611999565b6040519080825280601f01601f1916602001820160405280156116ca576020820181803683370190505b5090505b84156108ab576116df600183611bb4565b91506116ec600a86611d19565b6116f7906030611bcb565b60f81b81838151811061170c5761170c611d2d565b60200101906001600160f81b031916908160001a90535061172e600a86611d05565b94506116ce565b82805461174190611abe565b90600052602060002090601f01602090048101928261176357600085556117a9565b82601f1061177c57805160ff19168380011785556117a9565b828001600101855582156117a9579182015b828111156117a957825182559160200191906001019061178e565b506117b59291506117b9565b5090565b5b808211156117b557600081556001016117ba565b6001600160e01b0319811681146106c657600080fd5b6000602082840312156117f657600080fd5b8135611401816117ce565b60005b8381101561181c578181015183820152602001611804565b838111156109035750506000910152565b60008151808452611845816020860160208601611801565b601f01601f19169290920160200192915050565b602081526000611401602083018461182d565b60006020828403121561187e57600080fd5b5035919050565b80356001600160a01b038116811461189c57600080fd5b919050565b600080604083850312156118b457600080fd5b6118bd83611885565b946020939093013593505050565b6000806000606084860312156118e057600080fd5b6118e984611885565b92506118f760208501611885565b9150604084013590509250925092565b60006020828403121561191957600080fd5b813567ffffffffffffffff81111561193057600080fd5b820160a0818503121561140157600080fd5b60006020828403121561195457600080fd5b61140182611885565b6000806040838503121561197057600080fd5b61197983611885565b91506020830135801515811461198e57600080fd5b809150509250929050565b634e487b7160e01b600052604160045260246000fd5b600080600080608085870312156119c557600080fd5b6119ce85611885565b93506119dc60208601611885565b925060408501359150606085013567ffffffffffffffff80821115611a0057600080fd5b818701915087601f830112611a1457600080fd5b813581811115611a2657611a26611999565b604051601f8201601f19908116603f01168101908382118183101715611a4e57611a4e611999565b816040528281528a6020848701011115611a6757600080fd5b82602086016020830137600060208483010152809550505050505092959194509250565b60008060408385031215611a9e57600080fd5b611aa783611885565b9150611ab560208401611885565b90509250929050565b600181811c90821680611ad257607f821691505b60208210811415611af357634e487b7160e01b600052602260045260246000fd5b50919050565b6020808252602e908201527f4552433732313a2063616c6c6572206973206e6f7420746f6b656e206f776e6560408201526d1c881b9bdc88185c1c1c9bdd995960921b606082015260800190565b6000808335601e19843603018112611b5e57600080fd5b83018035915067ffffffffffffffff821115611b7957600080fd5b6020019150368190038213156110c557600080fd5b8183823760009101908152919050565b634e487b7160e01b600052601160045260246000fd5b600082821015611bc657611bc6611b9e565b500390565b60008219821115611bde57611bde611b9e565b500190565b60208082526032908201527f4552433732313a207472616e7366657220746f206e6f6e20455243373231526560408201527131b2b4bb32b91034b6b83632b6b2b73a32b960711b606082015260800190565b60008351611c47818460208801611801565b835190830190611c5b818360208801611801565b01949350505050565b634e487b7160e01b600052602160045260246000fd5b6001600160a01b0385811682528416602082015260408101839052608060608201819052600090611cad9083018461182d565b9695505050505050565b600060208284031215611cc957600080fd5b8151611401816117ce565b6000600019821415611ce857611ce8611b9e565b5060010190565b634e487b7160e01b600052601260045260246000fd5b600082611d1457611d14611cef565b500490565b600082611d2857611d28611cef565b500690565b634e487b7160e01b600052603260045260246000fdfea2646970667358221220c0cca32db255181443f6c188749b7adf7c91460156c2bfd4dcf658d43a959a4064736f6c63430008080033",
  "linkReferences": {},
  "deployedLinkReferences": {}
}