{
  "_format": "hh-sol-artifact-1",
  "contractName": "LazyNFT",
  "sourceName": "contracts/LazyNFT.sol",
  "abi": [
    {
      "inputs": [
        {
          "internalType": "address",
          "name": "_minter",
          "type": "address"
        }
      ],
      "stateMutability": "nonpayable",
      "type": "constructor"
    },
    {
      "anonymous": false,
      "inputs": [
        {
          "indexed": true,
          "internalType": "address",
          "name": "owner",
          "type": "address"
        },
        {
          "indexed": true,
          "internalType": "address",
          "name": "approved",
          "type": "address"
        },
        {
          "indexed": true,
          "internalType": "uint256",
          "name": "tokenId",
          "type": "uint256"
        }
      ],
      "name": "Approval",
      "type": "event"
    },
    {
      "anonymous": false,
      "inputs": [
        {
          "indexed": true,
          "internalType": "address",
          "name": "owner",
          "type": "address"
        },
        {
          "indexed": true,
          "internalType": "address",
          "name": "operator",
          "type": "address"
        },
        {
          "indexed": false,
          "internalType": "bool",
          "name": "approved",
          "type": "bool"
        }
      ],
      "name": "ApprovalForAll",
      "type": "event"
    },
    {
      "anonymous": false,
      "inputs": [
        {
          "indexed": true,
          "internalType": "address",
          "name": "from",
          "type": "address"
        },
        {
          "indexed": true,
          "internalType": "address",
          "name": "to",
          "type": "address"
        },
        {
          "indexed": true,
          "internalType": "uint256",
          "name": "tokenId",
          "type": "uint256"
        }
      ],
      "name": "Transfer",
      "type": "event"
    },
    {
      "inputs": [
        {
          "internalType": "address",
          "name": "to",
          "type": "address"
        },
        {
          "internalType": "uint256",
          "name": "tokenId",
          "type": "uint256"
        }
      ],
      "name": "approve",
      "outputs": [],
      "stateMutability": "nonpayable",
      "type": "function"
    },
    {
      "inputs": [
        {
          "internalType": "address",
          "name": "owner",
          "type": "address"
        }
      ],
      "name": "balanceOf",
      "outputs": [
        {
          "internalType": "uint256",
          "name": "",
          "type": "uint256"
        }
      ],
      "stateMutability": "view",
      "type": "function"
    },
    {
      "inputs": [
        {
          "internalType": "uint256",
          "name": "tokenId",
          "type": "uint256"
        }
      ],
      "name": "getApproved",
      "outputs": [
        {
          "internalType": "address",
          "name": "",
          "type": "address"
        }
      ],
      "stateMutability": "view",
      "type": "function"
    },
    {
      "inputs": [
        {
          "internalType": "address",
          "name": "owner",
          "type": "address"
        },
        {
          "internalType": "address",
          "name": "operator",
          "type": "address"
        }
      ],
      "name": "isApprovedForAll",
      "outputs": [
        {
          "internalType": "bool",
          "name": "",
          "type": "bool"
        }
      ],
      "stateMutability": "view",
      "type": "function"
    },
    {
      "inputs": [],
      "name": "minter",
      "outputs": [
        {
          "internalType": "address",
          "name": "",
          "type": "address"
        }
      ],
      "stateMutability": "view",
      "type": "function"
    },
    {
      "inputs": [],
      "name": "name",
      "outputs": [
        {
          "internalType": "string",
          "name": "",
          "type": "string"
        }
      ],
      "stateMutability": "view",
      "type": "function"
    },
    {
      "inputs": [
        {
          "internalType": "uint256",
          "name": "tokenId",
          "type": "uint256"
        }
      ],
      "name": "ownerOf",
      "outputs": [
        {
          "internalType": "address",
          "name": "",
          "type": "address"
        }
      ],
      "stateMutability": "view",
      "type": "function"
    },
    {
      "inputs": [
        {
          "components": [
            {
              "internalType": "uint256",
              "name": "tokenId",
              "type": "uint256"
            },
            {
              "internalType": "uint256",
              "name": "price",
              "type": "uint256"
            },
            {
              "internalType": "string",
              "name": "uri",
              "type": "string"
            },
            {
              "internalType": "address",
              "name": "buyer",
              "type": "address"
            },
            {
              "internalType": "bytes",
              "name": "signature",
              "type": "bytes"
            }
          ],
          "internalType": "struct LazyNFT.LazyNFTVoucher",
          "name": "voucher",
          "type": "tuple"
        }
      ],
      "name": "recover",
      "outputs": [
        {
          "internalType": "address",
          "name": "",
          "type": "address"
        }
      ],
      "stateMutability": "view",
      "type": "function"
    },
    {
      "inputs": [
        {
          "components": [
            {
              "internalType": "uint256",
              "name": "tokenId",
              "type": "uint256"
            },
            {
              "internalType": "uint256",
              "name": "price",
              "type": "uint256"
            },
            {
              "internalType": "string",
              "name": "uri",
              "type": "string"
            },
            {
              "internalType": "address",
              "name": "buyer",
              "type": "address"
            },
            {
              "internalType": "bytes",
              "name": "signature",
              "type": "bytes"
            }
          ],
          "internalType": "struct LazyNFT.LazyNFTVoucher",
          "name": "voucher",
          "type": "tuple"
        }
      ],
      "name": "safeMint",
      "outputs": [],
      "stateMutability": "payable",
      "type": "function"
    },
    {
      "inputs": [
        {
          "internalType": "address",
          "name": "from",
          "type": "address"
        },
        {
          "internalType": "address",
          "name": "to",
          "type": "address"
        },
        {
          "internalType": "uint256",
          "name": "tokenId",
          "type": "uint256"
        }
      ],
      "name": "safeTransferFrom",
      "outputs": [],
      "stateMutability": "nonpayable",
      "type": "function"
    },
    {
      "inputs": [
        {
          "internalType": "address",
          "name": "from",
          "type": "address"
        },
        {
          "internalType": "address",
          "name": "to",
          "type": "address"
        },
        {
          "internalType": "uint256",
          "name": "tokenId",
          "type": "uint256"
        },
        {
          "internalType": "bytes",
          "name": "data",
          "type": "bytes"
        }
      ],
      "name": "safeTransferFrom",
      "outputs": [],
      "stateMutability": "nonpayable",
      "type": "function"
    },
    {
      "inputs": [
        {
          "internalType": "address",
          "name": "operator",
          "type": "address"
        },
        {
          "internalType": "bool",
          "name": "approved",
          "type": "bool"
        }
      ],
      "name": "setApprovalForAll",
      "outputs": [],
      "stateMutability": "nonpayable",
      "type": "function"
    },
    {
      "inputs": [
        {
          "internalType": "bytes4",
          "name": "interfaceId",
          "type": "bytes4"
        }
      ],
      "name": "supportsInterface",
      "outputs": [
        {
          "internalType": "bool",
          "name": "",
          "type": "bool"
        }
      ],
      "stateMutability": "view",
      "type": "function"
    },
    {
      "inputs": [],
      "name": "symbol",
      "outputs": [
        {
          "internalType": "string",
          "name": "",
          "type": "string"
        }
      ],
      "stateMutability": "view",
      "type": "function"
    },
    {
      "inputs": [
        {
          "internalType": "uint256",
          "name": "tokenId",
          "type": "uint256"
        }
      ],
      "name": "tokenURI",
      "outputs": [
        {
          "internalType": "string",
          "name": "",
          "type": "string"
        }
      ],
      "stateMutability": "view",
      "type": "function"
    },
    {
      "inputs": [
        {
          "internalType": "address",
          "name": "from",
          "type": "address"
        },
        {
          "internalType": "address",
          "name": "to",
          "type": "address"
        },
        {
          "internalType": "uint256",
          "name": "tokenId",
          "type": "uint256"
        }
      ],
      "name": "transferFrom",
      "outputs": [],
      "stateMutability": "nonpayable",
      "type": "function"
    }
  ],
  "bytecode": "0x6101406040523480156200001257600080fd5b50604051620021283803806200212883398101604081905262000035916200018f565b6040518060400160405280600e81526020016d2b37bab1b432b916a237b6b0b4b760911b815250604051806040016040528060018152602001603160f81b8152506040518060400160405280600781526020016613185e9e53919560ca1b815250604051806040016040528060048152602001631313919560e21b8152508160009081620000c4919062000266565b506001620000d3828262000266565b5050825160208085019190912083518483012060e08290526101008190524660a0818152604080517f8b73c3c69bb8fe3d512ecc4cf759cc79239f7b179b0ffacaa9a75d522b39400f81880181905281830187905260608201869052608082019490945230818401528151808203909301835260c0019052805194019390932091935091906080523060c052610120525050600780546001600160a01b0319166001600160a01b03949094169390931790925550620003329050565b600060208284031215620001a257600080fd5b81516001600160a01b0381168114620001ba57600080fd5b9392505050565b634e487b7160e01b600052604160045260246000fd5b600181811c90821680620001ec57607f821691505b6020821081036200020d57634e487b7160e01b600052602260045260246000fd5b50919050565b601f8211156200026157600081815260208120601f850160051c810160208610156200023c5750805b601f850160051c820191505b818110156200025d5782815560010162000248565b5050505b505050565b81516001600160401b03811115620002825762000282620001c1565b6200029a81620002938454620001d7565b8462000213565b602080601f831160018114620002d25760008415620002b95750858301515b600019600386901b1c1916600185901b1785556200025d565b600085815260208120601f198616915b828110156200030357888601518255948401946001909101908401620002e2565b5085821015620003225787850151600019600388901b60f8161c191681555b5050505050600190811b01905550565b60805160a05160c05160e0516101005161012051611da6620003826000396000610fc40152600061101301526000610fee01526000610f4701526000610f7101526000610f9b0152611da66000f3fe6080604052600436106100f35760003560e01c80636352211e1161008a578063a22cb46511610059578063a22cb4651461029f578063b88d4fde146102bf578063c87b56dd146102df578063e985e9c5146102ff57600080fd5b80636352211e1461021c57806370a082311461023c578063805823741461026a57806395d89b411461028a57600080fd5b8063095ea7b3116100c6578063095ea7b3146101a757806323b872dd146101c957806342842e0e146101e9578063451f50781461020957600080fd5b806301ffc9a7146100f857806306fdde031461012d578063075461721461014f578063081812fc14610187575b600080fd5b34801561010457600080fd5b50610118610113366004611717565b61031f565b60405190151581526020015b60405180910390f35b34801561013957600080fd5b50610142610371565b6040516101249190611784565b34801561015b57600080fd5b5060075461016f906001600160a01b031681565b6040516001600160a01b039091168152602001610124565b34801561019357600080fd5b5061016f6101a2366004611797565b610403565b3480156101b357600080fd5b506101c76101c23660046117cc565b61042a565b005b3480156101d557600080fd5b506101c76101e43660046117f6565b610544565b3480156101f557600080fd5b506101c76102043660046117f6565b610575565b6101c7610217366004611832565b610590565b34801561022857600080fd5b5061016f610237366004611797565b61069f565b34801561024857600080fd5b5061025c61025736600461186d565b6106ff565b604051908152602001610124565b34801561027657600080fd5b5061016f610285366004611832565b610785565b34801561029657600080fd5b50610142610889565b3480156102ab57600080fd5b506101c76102ba366004611888565b610898565b3480156102cb57600080fd5b506101c76102da3660046118da565b6108a7565b3480156102eb57600080fd5b506101426102fa366004611797565b6108df565b34801561030b57600080fd5b5061011861031a3660046119b6565b6108ea565b60006001600160e01b031982166380ac58cd60e01b148061035057506001600160e01b03198216635b5e139f60e01b145b8061036b57506301ffc9a760e01b6001600160e01b03198316145b92915050565b606060008054610380906119e9565b80601f01602080910402602001604051908101604052809291908181526020018280546103ac906119e9565b80156103f95780601f106103ce576101008083540402835291602001916103f9565b820191906000526020600020905b8154815290600101906020018083116103dc57829003601f168201915b5050505050905090565b600061040e82610918565b506000908152600460205260409020546001600160a01b031690565b60006104358261069f565b9050806001600160a01b0316836001600160a01b0316036104a75760405162461bcd60e51b815260206004820152602160248201527f4552433732313a20617070726f76616c20746f2063757272656e74206f776e656044820152603960f91b60648201526084015b60405180910390fd5b336001600160a01b03821614806104c357506104c381336108ea565b6105355760405162461bcd60e51b815260206004820152603e60248201527f4552433732313a20617070726f76652063616c6c6572206973206e6f7420746f60448201527f6b656e206f776e6572206e6f7220617070726f76656420666f7220616c6c0000606482015260840161049e565b61053f8383610977565b505050565b61054e33826109e5565b61056a5760405162461bcd60e51b815260040161049e90611a23565b61053f838383610a43565b61053f838383604051806020016040528060008152506108a7565b61059981610785565b6007546001600160a01b039081169116146105e95760405162461bcd60e51b815260206004820152601060248201526f2bb937b7339039b4b3b730ba3ab9329760811b604482015260640161049e565b80602001353410156106365760405162461bcd60e51b81526020600482015260166024820152752737ba1032b737bab3b41032ba3432b91039b2b73a1760511b604482015260640161049e565b610650610649608083016060840161186d565b8235610bdf565b61069c81356106626040840184611a71565b8080601f016020809104026020016040519081016040528093929190818152602001838380828437600092019190915250610bf992505050565b50565b6000818152600260205260408120546001600160a01b03168061036b5760405162461bcd60e51b8152602060048201526018602482015277115490cdcc8c4e881a5b9d985b1a59081d1bdad95b88125160421b604482015260640161049e565b60006001600160a01b0382166107695760405162461bcd60e51b815260206004820152602960248201527f4552433732313a2061646472657373207a65726f206973206e6f7420612076616044820152683634b21037bbb732b960b91b606482015260840161049e565b506001600160a01b031660009081526003602052604090205490565b6000806108327f9dc3068ebab8259df0963c01eb13024f5fd61127faccd50cf6f6173048c552fa843560208601356107c06040880188611a71565b6040516107ce929190611ab8565b6040519081900390206107e76080890160608a0161186d565b604080516020810196909652850193909352606084019190915260808301526001600160a01b031660a082015260c00160405160208183030381529060405280519060200120610c8c565b90506000610881826108476080870187611a71565b8080601f016020809104026020016040519081016040528093929190818152602001838380828437600092019190915250610cda92505050565b949350505050565b606060018054610380906119e9565b6108a3338383610cfe565b5050565b6108b133836109e5565b6108cd5760405162461bcd60e51b815260040161049e90611a23565b6108d984848484610dcc565b50505050565b606061036b82610dff565b6001600160a01b03918216600090815260056020908152604080832093909416825291909152205460ff1690565b6000818152600260205260409020546001600160a01b031661069c5760405162461bcd60e51b8152602060048201526018602482015277115490cdcc8c4e881a5b9d985b1a59081d1bdad95b88125160421b604482015260640161049e565b600081815260046020526040902080546001600160a01b0319166001600160a01b03841690811790915581906109ac8261069f565b6001600160a01b03167f8c5be1e5ebec7d5bd14f71427d1e84f3dd0314c0f7b2291e5b200ac8c7c3b92560405160405180910390a45050565b6000806109f18361069f565b9050806001600160a01b0316846001600160a01b03161480610a185750610a1881856108ea565b806108815750836001600160a01b0316610a3184610403565b6001600160a01b031614949350505050565b826001600160a01b0316610a568261069f565b6001600160a01b031614610aba5760405162461bcd60e51b815260206004820152602560248201527f4552433732313a207472616e736665722066726f6d20696e636f72726563742060448201526437bbb732b960d91b606482015260840161049e565b6001600160a01b038216610b1c5760405162461bcd60e51b8152602060048201526024808201527f4552433732313a207472616e7366657220746f20746865207a65726f206164646044820152637265737360e01b606482015260840161049e565b610b27600082610977565b6001600160a01b0383166000908152600360205260408120805460019290610b50908490611ade565b90915550506001600160a01b0382166000908152600360205260408120805460019290610b7e908490611af1565b909155505060008181526002602052604080822080546001600160a01b0319166001600160a01b0386811691821790925591518493918716917fddf252ad1be2c89b69c2b068fc378daa952ba7f163c4a11628f55a4df523b3ef91a4505050565b6108a3828260405180602001604052806000815250610f07565b6000828152600260205260409020546001600160a01b0316610c745760405162461bcd60e51b815260206004820152602e60248201527f45524337323155524953746f726167653a2055524920736574206f66206e6f6e60448201526d32bc34b9ba32b73a103a37b5b2b760911b606482015260840161049e565b600082815260066020526040902061053f8282611b52565b600061036b610c99610f3a565b8360405161190160f01b6020820152602281018390526042810182905260009060620160405160208183030381529060405280519060200120905092915050565b6000806000610ce98585611061565b91509150610cf6816110a6565b509392505050565b816001600160a01b0316836001600160a01b031603610d5f5760405162461bcd60e51b815260206004820152601960248201527f4552433732313a20617070726f766520746f2063616c6c657200000000000000604482015260640161049e565b6001600160a01b03838116600081815260056020908152604080832094871680845294825291829020805460ff191686151590811790915591519182527f17307eab39ab6107e8899845ad3d59bd9653f200f220920489ca2b5937696c31910160405180910390a3505050565b610dd7848484610a43565b610de38484848461125c565b6108d95760405162461bcd60e51b815260040161049e90611c12565b6060610e0a82610918565b60008281526006602052604081208054610e23906119e9565b80601f0160208091040260200160405190810160405280929190818152602001828054610e4f906119e9565b8015610e9c5780601f10610e7157610100808354040283529160200191610e9c565b820191906000526020600020905b815481529060010190602001808311610e7f57829003601f168201915b505050505090506000610eba60408051602081019091526000815290565b90508051600003610ecc575092915050565b815115610efe578082604051602001610ee6929190611c64565b60405160208183030381529060405292505050919050565b6108818461135d565b610f1183836113d1565b610f1e600084848461125c565b61053f5760405162461bcd60e51b815260040161049e90611c12565b6000306001600160a01b037f000000000000000000000000000000000000000000000000000000000000000016148015610f9357507f000000000000000000000000000000000000000000000000000000000000000046145b15610fbd57507f000000000000000000000000000000000000000000000000000000000000000090565b50604080517f00000000000000000000000000000000000000000000000000000000000000006020808301919091527f0000000000000000000000000000000000000000000000000000000000000000828401527f000000000000000000000000000000000000000000000000000000000000000060608301524660808301523060a0808401919091528351808403909101815260c0909201909252805191012090565b60008082516041036110975760208301516040840151606085015160001a61108b87828585611513565b9450945050505061109f565b506000905060025b9250929050565b60008160048111156110ba576110ba611c93565b036110c25750565b60018160048111156110d6576110d6611c93565b036111235760405162461bcd60e51b815260206004820152601860248201527f45434453413a20696e76616c6964207369676e61747572650000000000000000604482015260640161049e565b600281600481111561113757611137611c93565b036111845760405162461bcd60e51b815260206004820152601f60248201527f45434453413a20696e76616c6964207369676e6174757265206c656e67746800604482015260640161049e565b600381600481111561119857611198611c93565b036111f05760405162461bcd60e51b815260206004820152602260248201527f45434453413a20696e76616c6964207369676e6174757265202773272076616c604482015261756560f01b606482015260840161049e565b600481600481111561120457611204611c93565b0361069c5760405162461bcd60e51b815260206004820152602260248201527f45434453413a20696e76616c6964207369676e6174757265202776272076616c604482015261756560f01b606482015260840161049e565b60006001600160a01b0384163b1561135257604051630a85bd0160e11b81526001600160a01b0385169063150b7a02906112a0903390899088908890600401611ca9565b6020604051808303816000875af19250505080156112db575060408051601f3d908101601f191682019092526112d891810190611ce6565b60015b611338573d808015611309576040519150601f19603f3d011682016040523d82523d6000602084013e61130e565b606091505b5080516000036113305760405162461bcd60e51b815260040161049e90611c12565b805181602001fd5b6001600160e01b031916630a85bd0160e11b149050610881565b506001949350505050565b606061136882610918565b600061137f60408051602081019091526000815290565b9050600081511161139f57604051806020016040528060008152506113ca565b806113a984611600565b6040516020016113ba929190611c64565b6040516020818303038152906040525b9392505050565b6001600160a01b0382166114275760405162461bcd60e51b815260206004820181905260248201527f4552433732313a206d696e7420746f20746865207a65726f2061646472657373604482015260640161049e565b6000818152600260205260409020546001600160a01b03161561148c5760405162461bcd60e51b815260206004820152601c60248201527f4552433732313a20746f6b656e20616c7265616479206d696e74656400000000604482015260640161049e565b6001600160a01b03821660009081526003602052604081208054600192906114b5908490611af1565b909155505060008181526002602052604080822080546001600160a01b0319166001600160a01b03861690811790915590518392907fddf252ad1be2c89b69c2b068fc378daa952ba7f163c4a11628f55a4df523b3ef908290a45050565b6000807f7fffffffffffffffffffffffffffffff5d576e7357a4501ddfe92f46681b20a083111561154a57506000905060036115f7565b8460ff16601b1415801561156257508460ff16601c14155b1561157357506000905060046115f7565b6040805160008082526020820180845289905260ff881692820192909252606081018690526080810185905260019060a0016020604051602081039080840390855afa1580156115c7573d6000803e3d6000fd5b5050604051601f1901519150506001600160a01b0381166115f0576000600192509250506115f7565b9150600090505b94509492505050565b6060816000036116275750506040805180820190915260018152600360fc1b602082015290565b8160005b8115611651578061163b81611d03565b915061164a9050600a83611d32565b915061162b565b60008167ffffffffffffffff81111561166c5761166c6118c4565b6040519080825280601f01601f191660200182016040528015611696576020820181803683370190505b5090505b8415610881576116ab600183611ade565b91506116b8600a86611d46565b6116c3906030611af1565b60f81b8183815181106116d8576116d8611d5a565b60200101906001600160f81b031916908160001a9053506116fa600a86611d32565b945061169a565b6001600160e01b03198116811461069c57600080fd5b60006020828403121561172957600080fd5b81356113ca81611701565b60005b8381101561174f578181015183820152602001611737565b50506000910152565b60008151808452611770816020860160208601611734565b601f01601f19169290920160200192915050565b6020815260006113ca6020830184611758565b6000602082840312156117a957600080fd5b5035919050565b80356001600160a01b03811681146117c757600080fd5b919050565b600080604083850312156117df57600080fd5b6117e8836117b0565b946020939093013593505050565b60008060006060848603121561180b57600080fd5b611814846117b0565b9250611822602085016117b0565b9150604084013590509250925092565b60006020828403121561184457600080fd5b813567ffffffffffffffff81111561185b57600080fd5b820160a081850312156113ca57600080fd5b60006020828403121561187f57600080fd5b6113ca826117b0565b6000806040838503121561189b57600080fd5b6118a4836117b0565b9150602083013580151581146118b957600080fd5b809150509250929050565b634e487b7160e01b600052604160045260246000fd5b600080600080608085870312156118f057600080fd5b6118f9856117b0565b9350611907602086016117b0565b925060408501359150606085013567ffffffffffffffff8082111561192b57600080fd5b818701915087601f83011261193f57600080fd5b813581811115611951576119516118c4565b604051601f8201601f19908116603f01168101908382118183101715611979576119796118c4565b816040528281528a602084870101111561199257600080fd5b82602086016020830137600060208483010152809550505050505092959194509250565b600080604083850312156119c957600080fd5b6119d2836117b0565b91506119e0602084016117b0565b90509250929050565b600181811c908216806119fd57607f821691505b602082108103611a1d57634e487b7160e01b600052602260045260246000fd5b50919050565b6020808252602e908201527f4552433732313a2063616c6c6572206973206e6f7420746f6b656e206f776e6560408201526d1c881b9bdc88185c1c1c9bdd995960921b606082015260800190565b6000808335601e19843603018112611a8857600080fd5b83018035915067ffffffffffffffff821115611aa357600080fd5b60200191503681900382131561109f57600080fd5b8183823760009101908152919050565b634e487b7160e01b600052601160045260246000fd5b8181038181111561036b5761036b611ac8565b8082018082111561036b5761036b611ac8565b601f82111561053f57600081815260208120601f850160051c81016020861015611b2b5750805b601f850160051c820191505b81811015611b4a57828155600101611b37565b505050505050565b815167ffffffffffffffff811115611b6c57611b6c6118c4565b611b8081611b7a84546119e9565b84611b04565b602080601f831160018114611bb55760008415611b9d5750858301515b600019600386901b1c1916600185901b178555611b4a565b600085815260208120601f198616915b82811015611be457888601518255948401946001909101908401611bc5565b5085821015611c025787850151600019600388901b60f8161c191681555b5050505050600190811b01905550565b60208082526032908201527f4552433732313a207472616e7366657220746f206e6f6e20455243373231526560408201527131b2b4bb32b91034b6b83632b6b2b73a32b960711b606082015260800190565b60008351611c76818460208801611734565b835190830190611c8a818360208801611734565b01949350505050565b634e487b7160e01b600052602160045260246000fd5b6001600160a01b0385811682528416602082015260408101839052608060608201819052600090611cdc90830184611758565b9695505050505050565b600060208284031215611cf857600080fd5b81516113ca81611701565b600060018201611d1557611d15611ac8565b5060010190565b634e487b7160e01b600052601260045260246000fd5b600082611d4157611d41611d1c565b500490565b600082611d5557611d55611d1c565b500690565b634e487b7160e01b600052603260045260246000fdfea26469706673582212204f4358b6f90aaafddfc6b0888f9d977ffd824b02e40c34fbd7b02cd4dba483d164736f6c63430008120033",
  "linkReferences": {},
  "deployedLinkReferences": {}
}